:0400000007EF00F016
:10000800108236ED01F042EF01F082AA0EEF00F007
:1000180010EF00F01CEF00F00E50D8B416EF00F00F
:1000280018EF00F01CEF00F0034A042A014A022AE4
:1000380082AA21EF00F023EF00F035EF00F00E5018
:10004800D8A429EF00F02BEF00F035EF00F0010EF7
:100058000E6E000E046E000E036E000E026E000E91
:10006800016E82BA3AEF00F03CEF00F051EF00F079
:100078000E50D8B442EF00F044EF00F051EF00F01A
:100088008F0E015C010E0258D8B04DEF00F04FEF13
:1000980000F051EF00F0000E0E6E82AA56EF00F04D
:1000A80058EF00F06BEF00F08F0E031806E1040420
:1000B800D8A461EF00F063EF00F06BEF00F0000EE2
:1000C800046E000E036E010E026E900E016E82BA6F
:1000D80070EF00F072EF00F074EF00F0000E0E6E9B
:1000E800120082A87AEF00F07CEF00F088EF00F0B1
:1000F8000F50D8B482EF00F084EF00F088EF00F0E2
:10010800074A082A054A062A82A88DEF00F08FEFD1
:1001180000F0A1EF00F00F50D8A495EF00F097EF92
:1001280000F0A1EF00F0010E0F6E000E086E000E39
:10013800076E000E066E000E056E82B8A6EF00F080
:10014800A8EF00F0BDEF00F00F50D8B4AEEF00F00C
:10015800B0EF00F0BDEF00F08F0E055C010E065801
:10016800D8B0B9EF00F0BBEF00F0BDEF00F0000E23
:100178000F6E82A8C2EF00F0C4EF00F0D7EF00F0D6
:100188008F0E071806E10804D8A4CDEF00F0CFEFD2
:1001980000F0D7EF00F0000E086E000E076E010E9B
:1001A800066E900E056E82B8DCEF00F0DEEF00F010
:1001B800E0EF00F0000E0F6E12008F0ED316600EE7
:1001C800D3126D966F8625EC01F04DEC01F011EC21
:1001D80001F09298000E936E000E8A6E000E926ED9
:1001E800000E896E000E956E000E896E1200948CBA
:1001F800948EAC9CAC9AAC98AC86AC94AB8EAB9C11
:10020800AB88AB96AB94B89EB89AB898B896B890A5
:10021800330EAF6E770EAD6E12000C0EBD6E0C0E67
:10022800BA6E7C0ECB6ECA90CA82CA84000EBE6EAD
:10023800BD9ABD98000EBB6EBA9ABA9894929494DF
:100248001200F28EF29CF28AF298F296F294D09E04
:10025800D58ED58CD59AD596D580D582D584EC0EF9
:10026800D66E1200060062EC01F075EC00F009ECA5
:1002780000F0F294EC0ED66E1092110000EE01F030
:100288000F0EEE6AE806FDE110901092000158EF9B
:1002980001F09250EF09926E0A0EC16E010EC26E05
:1002A800840EC06EC2801200E1EC00F0FBEC00F09E
:0E02B80096908D905EEF01F007EF00F01200BF
:020000040020DA
:08000000FFFFFFFFFFFFFFFF00
:020000040030CA
:0E0000000009191EFF8180FF0FC00FE00F40A6
:00000001FF
